{
  "contractName": "Election",
  "abi": [
    {
      "inputs": [],
      "stateMutability": "nonpayable",
      "type": "constructor"
    },
    {
      "anonymous": false,
      "inputs": [
        {
          "indexed": true,
          "internalType": "uint256",
          "name": "_candidate_id",
          "type": "uint256"
        }
      ],
      "name": "votedEvent",
      "type": "event"
    },
    {
      "inputs": [
        {
          "internalType": "uint256",
          "name": "",
          "type": "uint256"
        }
      ],
      "name": "candidates",
      "outputs": [
        {
          "internalType": "string",
          "name": "name",
          "type": "string"
        },
        {
          "internalType": "uint256",
          "name": "vote_count",
          "type": "uint256"
        },
        {
          "internalType": "uint256",
          "name": "id",
          "type": "uint256"
        }
      ],
      "stateMutability": "view",
      "type": "function",
      "constant": true
    },
    {
      "inputs": [],
      "name": "election_name",
      "outputs": [
        {
          "internalType": "string",
          "name": "",
          "type": "string"
        }
      ],
      "stateMutability": "view",
      "type": "function",
      "constant": true
    },
    {
      "inputs": [],
      "name": "owner",
      "outputs": [
        {
          "internalType": "address",
          "name": "",
          "type": "address"
        }
      ],
      "stateMutability": "view",
      "type": "function",
      "constant": true
    },
    {
      "inputs": [],
      "name": "total_votes",
      "outputs": [
        {
          "internalType": "uint256",
          "name": "",
          "type": "uint256"
        }
      ],
      "stateMutability": "view",
      "type": "function",
      "constant": true
    },
    {
      "inputs": [
        {
          "internalType": "address",
          "name": "",
          "type": "address"
        }
      ],
      "name": "voters",
      "outputs": [
        {
          "internalType": "bool",
          "name": "authorized",
          "type": "bool"
        },
        {
          "internalType": "bool",
          "name": "vote_cast",
          "type": "bool"
        },
        {
          "internalType": "uint256",
          "name": "vote_option",
          "type": "uint256"
        }
      ],
      "stateMutability": "view",
      "type": "function",
      "constant": true
    },
    {
      "inputs": [
        {
          "internalType": "string",
          "name": "_name",
          "type": "string"
        }
      ],
      "name": "add_candidate",
      "outputs": [],
      "stateMutability": "nonpayable",
      "type": "function"
    },
    {
      "inputs": [],
      "name": "get_num_candidates",
      "outputs": [
        {
          "internalType": "uint256",
          "name": "",
          "type": "uint256"
        }
      ],
      "stateMutability": "view",
      "type": "function",
      "constant": true
    },
    {
      "inputs": [
        {
          "internalType": "address",
          "name": "_person",
          "type": "address"
        }
      ],
      "name": "authorize",
      "outputs": [],
      "stateMutability": "nonpayable",
      "type": "function"
    },
    {
      "inputs": [
        {
          "internalType": "uint256",
          "name": "_candidate_id",
          "type": "uint256"
        }
      ],
      "name": "vote",
      "outputs": [],
      "stateMutability": "nonpayable",
      "type": "function"
    },
    {
      "inputs": [],
      "name": "end",
      "outputs": [],
      "stateMutability": "nonpayable",
      "type": "function"
    }
  ],
  "bytecode": "0x6080604052336000806101000a81548173ffffffffffffffffffffffffffffffffffffffff021916908373ffffffffffffffffffffffffffffffffffffffff1602179055503480156200005157600080fd5b506040518060400160405280600d81526020017f456c656363696f6e657320344d00000000000000000000000000000000000000815250600190805190602001906200009f929190620002e9565b50620000e66040518060400160405280601581526020017f49736162656c204469617a20417975736f2c20505000000000000000000000008152506200020c60201b60201c565b6200012c6040518060400160405280601b81526020017f416e67656c20476162696c6f6e646f2050756a6f6c2c2050534f4500000000008152506200020c60201b60201c565b620001726040518060400160405280601781526020017f4d6f6e6963612047617263696120506572657a2c204d4d0000000000000000008152506200020c60201b60201c565b620001b86040518060400160405280601a81526020017f5061626c6f2049676c65736961732054757272696f6e2c2055500000000000008152506200020c60201b60201c565b620001fe6040518060400160405280601781526020017f45646d756e646f2042616c204672616e6365732c2043530000000000000000008152506200020c60201b60201c565b6000600281905550620003fe565b60008054906101000a900473ffffffffffffffffffffffffffffffffffffffff1673ffffffffffffffffffffffffffffffffffffffff163373ffffffffffffffffffffffffffffffffffffffff16146200026557600080fd5b600460405180606001604052808381526020016000815260200160048054905081525090806001815401808255809150506001900390600052602060002090600302016000909190919091506000820151816000019080519060200190620002cf929190620002e9565b506020820151816001015560408201518160020155505050565b828054620002f79062000399565b90600052602060002090601f0160209004810192826200031b576000855562000367565b82601f106200033657805160ff191683800117855562000367565b8280016001018555821562000367579182015b828111156200036657825182559160200191906001019062000349565b5b5090506200037691906200037a565b5090565b5b80821115620003955760008160009055506001016200037b565b5090565b60006002820490506001821680620003b257607f821691505b60208210811415620003c957620003c8620003cf565b5b50919050565b7f4e487b7100000000000000000000000000000000000000000000000000000000600052602260045260246000fd5b610d9f806200040e6000396000f3fe608060405234801561001057600080fd5b506004361061009e5760003560e01c8063a3ec138d11610066578063a3ec138d1461014b578063b6a5d7de1461017d578063d0f60c4414610199578063ed35a5da146101b5578063efbe1c1c146101d35761009e565b80630121b93f146100a35780633477ee2e146100bf578063668d8b92146100f15780636ede603d1461010f5780638da5cb5b1461012d575b600080fd5b6100bd60048036038101906100b8919061098c565b6101dd565b005b6100d960048036038101906100d4919061098c565b6103ff565b6040516100e893929190610a8f565b60405180910390f35b6100f96104c1565b6040516101069190610acd565b60405180910390f35b6101176104ce565b6040516101249190610acd565b60405180910390f35b6101356104d4565b6040516101429190610a1b565b60405180910390f35b61016560048036038101906101609190610922565b6104f8565b60405161017493929190610a36565b60405180910390f35b61019760048036038101906101929190610922565b61053c565b005b6101b360048036038101906101ae919061094b565b6105f4565b005b6101bd6106ce565b6040516101ca9190610a6d565b60405180910390f35b6101db61075c565b005b600360003373ffffffffffffffffffffffffffffffffffffffff1673ffffffffffffffffffffffffffffffffffffffff16815260200190815260200160002060000160019054906101000a900460ff161580156102865750600360003373ffffffffffffffffffffffffffffffffffffffff1673ffffffffffffffffffffffffffffffffffffffff16815260200190815260200160002060000160009054906101000a900460ff165b61028f57600080fd5b600081101580156102a757506102a36104c1565b8111155b6102b057600080fd5b80600360003373ffffffffffffffffffffffffffffffffffffffff1673ffffffffffffffffffffffffffffffffffffffff168152602001908152602001600020600101819055506001600360003373ffffffffffffffffffffffffffffffffffffffff1673ffffffffffffffffffffffffffffffffffffffff16815260200190815260200160002060000160016101000a81548160ff02191690831515021790555060016004828154811061038e577f4e487b7100000000000000000000000000000000000000000000000000000000600052603260045260246000fd5b906000526020600020906003020160010160008282546103ae9190610b5a565b925050819055506001600260008282546103c89190610b5a565b92505081905550807ffff3c900d938d21d0990d786e819f29b8d05c1ef587b462b939609625b684b1660405160405180910390a250565b6004818154811061040f57600080fd5b906000526020600020906003020160009150905080600001805461043290610c3a565b80601f016020809104026020016040519081016040528092919081815260200182805461045e90610c3a565b80156104ab5780601f10610480576101008083540402835291602001916104ab565b820191906000526020600020905b81548152906001019060200180831161048e57829003601f168201915b5050505050908060010154908060020154905083565b6000600480549050905090565b60025481565b60008054906101000a900473ffffffffffffffffffffffffffffffffffffffff1681565b60036020528060005260406000206000915090508060000160009054906101000a900460ff16908060000160019054906101000a900460ff16908060010154905083565b600360003373ffffffffffffffffffffffffffffffffffffffff1673ffffffffffffffffffffffffffffffffffffffff16815260200190815260200160002060000160009054906101000a900460ff161561059657600080fd5b6001600360008373ffffffffffffffffffffffffffffffffffffffff1673ffffffffffffffffffffffffffffffffffffffff16815260200190815260200160002060000160006101000a81548160ff02191690831515021790555050565b60008054906101000a900473ffffffffffffffffffffffffffffffffffffffff1673ffffffffffffffffffffffffffffffffffffffff163373ffffffffffffffffffffffffffffffffffffffff161461064c57600080fd5b6004604051806060016040528083815260200160008152602001600480549050815250908060018154018082558091505060019003906000526020600020906003020160009091909190915060008201518160000190805190602001906106b49291906107ed565b506020820151816001015560408201518160020155505050565b600180546106db90610c3a565b80601f016020809104026020016040519081016040528092919081815260200182805461070790610c3a565b80156107545780601f1061072957610100808354040283529160200191610754565b820191906000526020600020905b81548152906001019060200180831161073757829003601f168201915b505050505081565b60008054906101000a900473ffffffffffffffffffffffffffffffffffffffff1673ffffffffffffffffffffffffffffffffffffffff163373ffffffffffffffffffffffffffffffffffffffff16146107b457600080fd5b60008054906101000a900473ffffffffffffffffffffffffffffffffffffffff1673ffffffffffffffffffffffffffffffffffffffff16ff5b8280546107f990610c3a565b90600052602060002090601f01602090048101928261081b5760008555610862565b82601f1061083457805160ff1916838001178555610862565b82800160010185558215610862579182015b82811115610861578251825591602001919060010190610846565b5b50905061086f9190610873565b5090565b5b8082111561088c576000816000905550600101610874565b5090565b60006108a361089e84610b0d565b610ae8565b9050828152602081018484840111156108bb57600080fd5b6108c6848285610bf8565b509392505050565b6000813590506108dd81610d3b565b92915050565b600082601f8301126108f457600080fd5b8135610904848260208601610890565b91505092915050565b60008135905061091c81610d52565b92915050565b60006020828403121561093457600080fd5b6000610942848285016108ce565b91505092915050565b60006020828403121561095d57600080fd5b600082013567ffffffffffffffff81111561097757600080fd5b610983848285016108e3565b91505092915050565b60006020828403121561099e57600080fd5b60006109ac8482850161090d565b91505092915050565b6109be81610bb0565b82525050565b6109cd81610bc2565b82525050565b60006109de82610b3e565b6109e88185610b49565b93506109f8818560208601610c07565b610a0181610d2a565b840191505092915050565b610a1581610bee565b82525050565b6000602082019050610a3060008301846109b5565b92915050565b6000606082019050610a4b60008301866109c4565b610a5860208301856109c4565b610a656040830184610a0c565b949350505050565b60006020820190508181036000830152610a8781846109d3565b905092915050565b60006060820190508181036000830152610aa981866109d3565b9050610ab86020830185610a0c565b610ac56040830184610a0c565b949350505050565b6000602082019050610ae26000830184610a0c565b92915050565b6000610af2610b03565b9050610afe8282610c6c565b919050565b6000604051905090565b600067ffffffffffffffff821115610b2857610b27610cfb565b5b610b3182610d2a565b9050602081019050919050565b600081519050919050565b600082825260208201905092915050565b6000610b6582610bee565b9150610b7083610bee565b9250827fffffffffffffffffffffffffffffffffffffffffffffffffffffffffffffffff03821115610ba557610ba4610c9d565b5b828201905092915050565b6000610bbb82610bce565b9050919050565b60008115159050919050565b600073ffffffffffffffffffffffffffffffffffffffff82169050919050565b6000819050919050565b82818337600083830152505050565b60005b83811015610c25578082015181840152602081019050610c0a565b83811115610c34576000848401525b50505050565b60006002820490506001821680610c5257607f821691505b60208210811415610c6657610c65610ccc565b5b50919050565b610c7582610d2a565b810181811067ffffffffffffffff82111715610c9457610c93610cfb565b5b80604052505050565b7f4e487b7100000000000000000000000000000000000000000000000000000000600052601160045260246000fd5b7f4e487b7100000000000000000000000000000000000000000000000000000000600052602260045260246000fd5b7f4e487b7100000000000000000000000000000000000000000000000000000000600052604160045260246000fd5b6000601f19601f8301169050919050565b610d4481610bb0565b8114610d4f57600080fd5b50565b610d5b81610bee565b8114610d6657600080fd5b5056fea264697066735822122082b82c3bbf53788e2e0253e3c51e0e15b7522f18348f2b25581b8d267ce939e264736f6c63430008040033",
  "immutableReferences": {},
  "source": "// SPDX-License-Identifier: MIT\r\npragma solidity 0.8.4;\r\n\r\ncontract Election {\r\n    \r\n    address public owner = msg.sender;\r\n    string public election_name;\r\n    uint public total_votes;\r\n    \r\n    constructor() {\r\n        election_name = \"Elecciones 4M\";\r\n        add_candidate(\"Isabel Diaz Ayuso, PP\");\r\n        add_candidate(\"Angel Gabilondo Pujol, PSOE\");\r\n        add_candidate(\"Monica Garcia Perez, MM\");\r\n        add_candidate(\"Pablo Iglesias Turrion, UP\");\r\n        add_candidate(\"Edmundo Bal Frances, CS\");\r\n        total_votes = 0;\r\n    }\r\n    \r\n    struct Candidate {\r\n        string name;\r\n        uint vote_count;\r\n        uint id;\r\n    }\r\n    \r\n    struct Voter {\r\n        bool authorized;\r\n        bool vote_cast;\r\n        uint vote_option;\r\n    }\r\n\r\n    event votedEvent (\r\n        uint indexed _candidate_id\r\n    );\r\n\r\n    mapping(address => Voter) public voters;\r\n    Candidate[] public candidates;\r\n    \r\n    modifier owner_only() {\r\n        require(msg.sender == owner);\r\n        _;\r\n    }\r\n\r\n    function add_candidate(string memory _name) owner_only public {\r\n        candidates.push(Candidate(_name, 0, candidates.length));\r\n    }\r\n    \r\n    function get_num_candidates() public view returns(uint) {\r\n        return candidates.length;\r\n    }\r\n    \r\n    function authorize(address _person) public {\r\n        require(!voters[msg.sender].authorized);\r\n        voters[_person].authorized = true;\r\n    }\r\n    \r\n    function vote(uint _candidate_id) public {\r\n        require(!voters[msg.sender].vote_cast && voters[msg.sender].authorized);\r\n        require(_candidate_id >= 0 && _candidate_id <= get_num_candidates());\r\n        \r\n        voters[msg.sender].vote_option = _candidate_id;\r\n        voters[msg.sender].vote_cast = true;\r\n        \r\n        candidates[_candidate_id].vote_count += 1;\r\n        total_votes += 1;\r\n        emit votedEvent(_candidate_id);\r\n    }\r\n    \r\n    function end() owner_only public {\r\n        selfdestruct(payable(owner));\r\n    }\r\n}\r\n",
  "sourcePath": "C:/Users/guimo/election/contracts/Election.sol",
  "compiler": {
    "name": "solc",
    "version": "0.8.4+commit.c7e474f2.Emscripten.clang"
  },
  "schemaVersion": "3.4.0",
  "updatedAt": "2021-05-01T15:21:27.188Z",
  "networkType": "ethereum",
  "devdoc": {
    "kind": "dev",
    "methods": {},
    "version": 1
  },
  "userdoc": {
    "kind": "user",
    "methods": {},
    "version": 1
  }
}